{
  "contractName": "Bounty0xEscrow",
  "abi": [
    {
      "constant": false,
      "inputs": [],
      "name": "unpause",
      "outputs": [],
      "payable": false,
      "stateMutability": "nonpayable",
      "type": "function"
    },
    {
      "constant": true,
      "inputs": [
        {
          "name": "",
          "type": "address"
        },
        {
          "name": "",
          "type": "address"
        }
      ],
      "name": "tokens",
      "outputs": [
        {
          "name": "",
          "type": "uint256"
        }
      ],
      "payable": false,
      "stateMutability": "view",
      "type": "function"
    },
    {
      "constant": true,
      "inputs": [],
      "name": "paused",
      "outputs": [
        {
          "name": "",
          "type": "bool"
        }
      ],
      "payable": false,
      "stateMutability": "view",
      "type": "function"
    },
    {
      "constant": false,
      "inputs": [],
      "name": "pause",
      "outputs": [],
      "payable": false,
      "stateMutability": "nonpayable",
      "type": "function"
    },
    {
      "constant": true,
      "inputs": [],
      "name": "owner",
      "outputs": [
        {
          "name": "",
          "type": "address"
        }
      ],
      "payable": false,
      "stateMutability": "view",
      "type": "function"
    },
    {
      "constant": true,
      "inputs": [
        {
          "name": "",
          "type": "address"
        }
      ],
      "name": "tokenIsSupported",
      "outputs": [
        {
          "name": "",
          "type": "bool"
        }
      ],
      "payable": false,
      "stateMutability": "view",
      "type": "function"
    },
    {
      "constant": false,
      "inputs": [
        {
          "name": "newOwner",
          "type": "address"
        }
      ],
      "name": "transferOwnership",
      "outputs": [],
      "payable": false,
      "stateMutability": "nonpayable",
      "type": "function"
    },
    {
      "inputs": [],
      "payable": false,
      "stateMutability": "nonpayable",
      "type": "constructor"
    },
    {
      "anonymous": false,
      "inputs": [
        {
          "indexed": false,
          "name": "token",
          "type": "address"
        },
        {
          "indexed": false,
          "name": "user",
          "type": "address"
        },
        {
          "indexed": false,
          "name": "amount",
          "type": "uint256"
        },
        {
          "indexed": false,
          "name": "balance",
          "type": "uint256"
        }
      ],
      "name": "Deposit",
      "type": "event"
    },
    {
      "anonymous": false,
      "inputs": [
        {
          "indexed": false,
          "name": "token",
          "type": "address"
        },
        {
          "indexed": false,
          "name": "host",
          "type": "address"
        },
        {
          "indexed": false,
          "name": "hunter",
          "type": "address"
        },
        {
          "indexed": false,
          "name": "amount",
          "type": "uint256"
        },
        {
          "indexed": false,
          "name": "timestamp",
          "type": "uint64"
        }
      ],
      "name": "Distribution",
      "type": "event"
    },
    {
      "anonymous": false,
      "inputs": [],
      "name": "Pause",
      "type": "event"
    },
    {
      "anonymous": false,
      "inputs": [],
      "name": "Unpause",
      "type": "event"
    },
    {
      "anonymous": false,
      "inputs": [
        {
          "indexed": true,
          "name": "previousOwner",
          "type": "address"
        },
        {
          "indexed": true,
          "name": "newOwner",
          "type": "address"
        }
      ],
      "name": "OwnershipTransferred",
      "type": "event"
    },
    {
      "constant": false,
      "inputs": [
        {
          "name": "_token",
          "type": "address"
        }
      ],
      "name": "addSupportedToken",
      "outputs": [],
      "payable": false,
      "stateMutability": "nonpayable",
      "type": "function"
    },
    {
      "constant": false,
      "inputs": [
        {
          "name": "_token",
          "type": "address"
        }
      ],
      "name": "removeSupportedToken",
      "outputs": [],
      "payable": false,
      "stateMutability": "nonpayable",
      "type": "function"
    },
    {
      "constant": true,
      "inputs": [],
      "name": "getListOfSupportedTokens",
      "outputs": [
        {
          "name": "",
          "type": "address[]"
        }
      ],
      "payable": false,
      "stateMutability": "view",
      "type": "function"
    },
    {
      "constant": false,
      "inputs": [
        {
          "name": "_from",
          "type": "address"
        },
        {
          "name": "_value",
          "type": "uint256"
        },
        {
          "name": "_data",
          "type": "bytes"
        }
      ],
      "name": "tokenFallback",
      "outputs": [],
      "payable": false,
      "stateMutability": "nonpayable",
      "type": "function"
    },
    {
      "constant": false,
      "inputs": [
        {
          "name": "_token",
          "type": "address"
        },
        {
          "name": "_amount",
          "type": "uint256"
        }
      ],
      "name": "depositToken",
      "outputs": [],
      "payable": false,
      "stateMutability": "nonpayable",
      "type": "function"
    },
    {
      "constant": false,
      "inputs": [
        {
          "name": "_token",
          "type": "address"
        },
        {
          "name": "_host",
          "type": "address"
        },
        {
          "name": "_hunter",
          "type": "address"
        },
        {
          "name": "_amount",
          "type": "uint256"
        }
      ],
      "name": "distributeTokenToAddress",
      "outputs": [],
      "payable": false,
      "stateMutability": "nonpayable",
      "type": "function"
    },
    {
      "constant": false,
      "inputs": [
        {
          "name": "_token",
          "type": "address"
        },
        {
          "name": "_host",
          "type": "address"
        },
        {
          "name": "_hunters",
          "type": "address[]"
        },
        {
          "name": "_amounts",
          "type": "uint256[]"
        }
      ],
      "name": "distributeTokenToAddressesAndAmounts",
      "outputs": [],
      "payable": false,
      "stateMutability": "nonpayable",
      "type": "function"
    },
    {
      "constant": false,
      "inputs": [
        {
          "name": "_token",
          "type": "address"
        },
        {
          "name": "_hunters",
          "type": "address[]"
        },
        {
          "name": "_amounts",
          "type": "uint256[]"
        }
      ],
      "name": "distributeTokenToAddressesAndAmountsWithoutHost",
      "outputs": [],
      "payable": false,
      "stateMutability": "nonpayable",
      "type": "function"
    }
  ],
  "bytecode": "0x608060405260008060146101000a81548160ff02191690831515021790555034801561002a57600080fd5b506000336000806101000a81548173ffffffffffffffffffffffffffffffffffffffff021916908373ffffffffffffffffffffffffffffffffffffffff16021790555073d2d6158683aee4cc838067727209a0aaf4359de3905060018190806001815401808255809150509060018203906000526020600020016000909192909190916101000a81548173ffffffffffffffffffffffffffffffffffffffff021916908373ffffffffffffffffffffffffffffffffffffffff160217905550506001600260008373ffffffffffffffffffffffffffffffffffffffff1673ffffffffffffffffffffffffffffffffffffffff16815260200190815260200160002060006101000a81548160ff021916908315150217905550506123de806101526000396000f3006080604052600436106100db576000357c0100000000000000000000000000000000000000000000000000000000900463ffffffff1680632b44e5be146100e0578063338b5dea1461016d5780633f4ba83a146101ba578063508493bc146101d15780635c975abb146102485780635f4402c5146102775780636d69fcaf1461030a578063763191901461034d5780638456cb59146103905780638da5cb5b146103a7578063b425bd43146103fe578063c0ee0b8a14610471578063e706195014610504578063ea4e6ded1461055f578063f2fde38b146105cb575b600080fd5b3480156100ec57600080fd5b5061016b600480360381019080803573ffffffffffffffffffffffffffffffffffffffff169060200190929190803573ffffffffffffffffffffffffffffffffffffffff169060200190929190803573ffffffffffffffffffffffffffffffffffffffff1690602001909291908035906020019092919050505061060e565b005b34801561017957600080fd5b506101b8600480360381019080803573ffffffffffffffffffffffffffffffffffffffff16906020019092919080359060200190929190505050610aa8565b005b3480156101c657600080fd5b506101cf610ea2565b005b3480156101dd57600080fd5b50610232600480360381019080803573ffffffffffffffffffffffffffffffffffffffff169060200190929190803573ffffffffffffffffffffffffffffffffffffffff169060200190929190505050610f60565b6040518082815260200191505060405180910390f35b34801561025457600080fd5b5061025d610f85565b604051808215151515815260200191505060405180910390f35b34801561028357600080fd5b50610308600480360381019080803573ffffffffffffffffffffffffffffffffffffffff169060200190929190803573ffffffffffffffffffffffffffffffffffffffff169060200190929190803590602001908201803590602001919091929391929390803590602001908201803590602001919091929391929390505050610f98565b005b34801561031657600080fd5b5061034b600480360381019080803573ffffffffffffffffffffffffffffffffffffffff16906020019092919050505061152a565b005b34801561035957600080fd5b5061038e600480360381019080803573ffffffffffffffffffffffffffffffffffffffff16906020019092919050505061169f565b005b34801561039c57600080fd5b506103a56118f5565b005b3480156103b357600080fd5b506103bc6119b5565b604051808273ffffffffffffffffffffffffffffffffffffffff1673ffffffffffffffffffffffffffffffffffffffff16815260200191505060405180910390f35b34801561040a57600080fd5b5061046f600480360381019080803573ffffffffffffffffffffffffffffffffffffffff1690602001909291908035906020019082018035906020019190919293919293908035906020019082018035906020019190919293919293905050506119da565b005b34801561047d57600080fd5b50610502600480360381019080803573ffffffffffffffffffffffffffffffffffffffff16906020019092919080359060200190929190803590602001908201803590602001908080601f0160208091040260200160405190810160405280939291908181526020018383808284378201915050505050509192919290505050611e82565b005b34801561051057600080fd5b50610545600480360381019080803573ffffffffffffffffffffffffffffffffffffffff169060200190929190505050612129565b604051808215151515815260200191505060405180910390f35b34801561056b57600080fd5b50610574612149565b6040518080602001828103825283818151815260200191508051906020019060200280838360005b838110156105b757808201518184015260208101905061059c565b505050509050019250505060405180910390f35b3480156105d757600080fd5b5061060c600480360381019080803573ffffffffffffffffffffffffffffffffffffffff1690602001909291905050506121d7565b005b6000809054906101000a900473ffffffffffffffffffffffffffffffffffffffff1673ffffffffffffffffffffffffffffffffffffffff163373ffffffffffffffffffffffffffffffffffffffff1614151561066957600080fd5b600073ffffffffffffffffffffffffffffffffffffffff168473ffffffffffffffffffffffffffffffffffffffff16141515156106a557600080fd5b600073ffffffffffffffffffffffffffffffffffffffff168273ffffffffffffffffffffffffffffffffffffffff16141515156106e157600080fd5b600260008573ffffffffffffffffffffffffffffffffffffffff1673ffffffffffffffffffffffffffffffffffffffff16815260200190815260200160002060009054906101000a900460ff16151561073957600080fd5b80600360008673ffffffffffffffffffffffffffffffffffffffff1673ffffffffffffffffffffffffffffffffffffffff16815260200190815260200160002060008573ffffffffffffffffffffffffffffffffffffffff1673ffffffffffffffffffffffffffffffffffffffff16815260200190815260200160002054101515156107c457600080fd5b61084a600360008673ffffffffffffffffffffffffffffffffffffffff1673ffffffffffffffffffffffffffffffffffffffff16815260200190815260200160002060008573ffffffffffffffffffffffffffffffffffffffff1673ffffffffffffffffffffffffffffffffffffffff168152602001908152602001600020548261232c565b600360008673ffffffffffffffffffffffffffffffffffffffff1673ffffffffffffffffffffffffffffffffffffffff16815260200190815260200160002060008573ffffffffffffffffffffffffffffffffffffffff1673ffffffffffffffffffffffffffffffffffffffff168152602001908152602001600020819055508373ffffffffffffffffffffffffffffffffffffffff1663a9059cbb83836040518363ffffffff167c0100000000000000000000000000000000000000000000000000000000028152600401808373ffffffffffffffffffffffffffffffffffffffff1673ffffffffffffffffffffffffffffffffffffffff16815260200182815260200192505050602060405180830381600087803b15801561096d57600080fd5b505af1158015610981573d6000803e3d6000fd5b505050506040513d602081101561099757600080fd5b810190808051906020019092919050505015156109b357600080fd5b7f77cbc1263ce3589cffa12699a0fcc8c3ee72c04a3a35055a02a43d376928007f8484848442604051808673ffffffffffffffffffffffffffffffffffffffff1673ffffffffffffffffffffffffffffffffffffffff1681526020018573ffffffffffffffffffffffffffffffffffffffff1673ffffffffffffffffffffffffffffffffffffffff1681526020018473ffffffffffffffffffffffffffffffffffffffff1673ffffffffffffffffffffffffffffffffffffffff1681526020018381526020018267ffffffffffffffff1667ffffffffffffffff1681526020019550505050505060405180910390a150505050565b600060149054906101000a900460ff16151515610ac457600080fd5b600073ffffffffffffffffffffffffffffffffffffffff168273ffffffffffffffffffffffffffffffffffffffff1614151515610b0057600080fd5b600260008373ffffffffffffffffffffffffffffffffffffffff1673ffffffffffffffffffffffffffffffffffffffff16815260200190815260200160002060009054906101000a900460ff161515610b5857600080fd5b8173ffffffffffffffffffffffffffffffffffffffff166323b872dd3330846040518463ffffffff167c0100000000000000000000000000000000000000000000000000000000028152600401808473ffffffffffffffffffffffffffffffffffffffff1673ffffffffffffffffffffffffffffffffffffffff1681526020018373ffffffffffffffffffffffffffffffffffffffff1673ffffffffffffffffffffffffffffffffffffffff1681526020018281526020019350505050602060405180830381600087803b158015610c2f57600080fd5b505af1158015610c43573d6000803e3d6000fd5b505050506040513d6020811015610c5957600080fd5b81019080805190602001909291905050501515610c7557600080fd5b610cfb600360008473ffffffffffffffffffffffffffffffffffffffff1673ffffffffffffffffffffffffffffffffffffffff16815260200190815260200160002060003373ffffffffffffffffffffffffffffffffffffffff1673ffffffffffffffffffffffffffffffffffffffff1681526020019081526020016000205482612345565b600360008473ffffffffffffffffffffffffffffffffffffffff1673ffffffffffffffffffffffffffffffffffffffff16815260200190815260200160002060003373ffffffffffffffffffffffffffffffffffffffff1673ffffffffffffffffffffffffffffffffffffffff168152602001908152602001600020819055507fdcbc1c05240f31ff3ad067ef1ee35ce4997762752e3a095284754544f4c709d7823383600360008773ffffffffffffffffffffffffffffffffffffffff1673ffffffffffffffffffffffffffffffffffffffff16815260200190815260200160002060003373ffffffffffffffffffffffffffffffffffffffff1673ffffffffffffffffffffffffffffffffffffffff16815260200190815260200160002054604051808573ffffffffffffffffffffffffffffffffffffffff1673ffffffffffffffffffffffffffffffffffffffff1681526020018473ffffffffffffffffffffffffffffffffffffffff1673ffffffffffffffffffffffffffffffffffffffff16815260200183815260200182815260200194505050505060405180910390a15050565b6000809054906101000a900473ffffffffffffffffffffffffffffffffffffffff1673ffffffffffffffffffffffffffffffffffffffff163373ffffffffffffffffffffffffffffffffffffffff16141515610efd57600080fd5b600060149054906101000a900460ff161515610f1857600080fd5b60008060146101000a81548160ff0219169083151502179055507f7805862f689e2f13df9f062ff482ad3ad112aca9e0847911ed832e158c525b3360405160405180910390a1565b6003602052816000526040600020602052806000526040600020600091509150505481565b600060149054906101000a900460ff1681565b60008060008060009054906101000a900473ffffffffffffffffffffffffffffffffffffffff1673ffffffffffffffffffffffffffffffffffffffff163373ffffffffffffffffffffffffffffffffffffffff16141515610ff857600080fd5b600073ffffffffffffffffffffffffffffffffffffffff168973ffffffffffffffffffffffffffffffffffffffff161415151561103457600080fd5b600073ffffffffffffffffffffffffffffffffffffffff168873ffffffffffffffffffffffffffffffffffffffff161415151561107057600080fd5b848490508787905014151561108457600080fd5b600260008a73ffffffffffffffffffffffffffffffffffffffff1673ffffffffffffffffffffffffffffffffffffffff16815260200190815260200160002060009054906101000a900460ff1615156110dc57600080fd5b60009250600091505b8484905082101561111d5761110e83868685818110151561110257fe5b90506020020135612345565b925081806001019250506110e5565b82600360008b73ffffffffffffffffffffffffffffffffffffffff1673ffffffffffffffffffffffffffffffffffffffff16815260200190815260200160002060008a73ffffffffffffffffffffffffffffffffffffffff1673ffffffffffffffffffffffffffffffffffffffff16815260200190815260200160002054101515156111a857600080fd5b61122e600360008b73ffffffffffffffffffffffffffffffffffffffff1673ffffffffffffffffffffffffffffffffffffffff16815260200190815260200160002060008a73ffffffffffffffffffffffffffffffffffffffff1673ffffffffffffffffffffffffffffffffffffffff168152602001908152602001600020548461232c565b600360008b73ffffffffffffffffffffffffffffffffffffffff1673ffffffffffffffffffffffffffffffffffffffff16815260200190815260200160002060008a73ffffffffffffffffffffffffffffffffffffffff1673ffffffffffffffffffffffffffffffffffffffff16815260200190815260200160002081905550600090505b8686905081101561151f578873ffffffffffffffffffffffffffffffffffffffff1663a9059cbb88888481811015156112e857fe5b9050602002013573ffffffffffffffffffffffffffffffffffffffff16878785818110151561131357fe5b905060200201356040518363ffffffff167c0100000000000000000000000000000000000000000000000000000000028152600401808373ffffffffffffffffffffffffffffffffffffffff1673ffffffffffffffffffffffffffffffffffffffff16815260200182815260200192505050602060405180830381600087803b15801561139f57600080fd5b505af11580156113b3573d6000803e3d6000fd5b505050506040513d60208110156113c957600080fd5b810190808051906020019092919050505015156113e557600080fd5b7f77cbc1263ce3589cffa12699a0fcc8c3ee72c04a3a35055a02a43d376928007f8989898985818110151561141657fe5b9050602002013573ffffffffffffffffffffffffffffffffffffffff16888886818110151561144157fe5b9050602002013542604051808673ffffffffffffffffffffffffffffffffffffffff1673ffffffffffffffffffffffffffffffffffffffff1681526020018573ffffffffffffffffffffffffffffffffffffffff1673ffffffffffffffffffffffffffffffffffffffff1681526020018473ffffffffffffffffffffffffffffffffffffffff1673ffffffffffffffffffffffffffffffffffffffff1681526020018381526020018267ffffffffffffffff1667ffffffffffffffff1681526020019550505050505060405180910390a180806001019150506112b3565b505050505050505050565b6000809054906101000a900473ffffffffffffffffffffffffffffffffffffffff1673ffffffffffffffffffffffffffffffffffffffff163373ffffffffffffffffffffffffffffffffffffffff1614151561158557600080fd5b600260008273ffffffffffffffffffffffffffffffffffffffff1673ffffffffffffffffffffffffffffffffffffffff16815260200190815260200160002060009054906101000a900460ff161515156115de57600080fd5b60018190806001815401808255809150509060018203906000526020600020016000909192909190916101000a81548173ffffffffffffffffffffffffffffffffffffffff021916908373ffffffffffffffffffffffffffffffffffffffff160217905550506001600260008373ffffffffffffffffffffffffffffffffffffffff1673ffffffffffffffffffffffffffffffffffffffff16815260200190815260200160002060006101000a81548160ff02191690831515021790555050565b6000806000809054906101000a900473ffffffffffffffffffffffffffffffffffffffff1673ffffffffffffffffffffffffffffffffffffffff163373ffffffffffffffffffffffffffffffffffffffff161415156116fd57600080fd5b600260008473ffffffffffffffffffffffffffffffffffffffff1673ffffffffffffffffffffffffffffffffffffffff16815260200190815260200160002060009054906101000a900460ff16151561175557600080fd5b600091505b6001805490508210156118ef578273ffffffffffffffffffffffffffffffffffffffff1660018381548110151561178d57fe5b9060005260206000200160009054906101000a900473ffffffffffffffffffffffffffffffffffffffff1673ffffffffffffffffffffffffffffffffffffffff1614156118e257600180805490500390506001818154811015156117ed57fe5b9060005260206000200160009054906101000a900473ffffffffffffffffffffffffffffffffffffffff1660018381548110151561182757fe5b9060005260206000200160006101000a81548173ffffffffffffffffffffffffffffffffffffffff021916908373ffffffffffffffffffffffffffffffffffffffff16021790555060018054809190600190036118849190612361565b506000600260008573ffffffffffffffffffffffffffffffffffffffff1673ffffffffffffffffffffffffffffffffffffffff16815260200190815260200160002060006101000a81548160ff0219169083151502179055506118f0565b818060010192505061175a565b5b505050565b6000809054906101000a900473ffffffffffffffffffffffffffffffffffffffff1673ffffffffffffffffffffffffffffffffffffffff163373ffffffffffffffffffffffffffffffffffffffff1614151561195057600080fd5b600060149054906101000a900460ff1615151561196c57600080fd5b6001600060146101000a81548160ff0219169083151502179055507f6985a02210a168e66602d3235cb6db0e70f92b3ba4d376a33c0f3d9434bff62560405160405180910390a1565b6000809054906101000a900473ffffffffffffffffffffffffffffffffffffffff1681565b60008060008060009054906101000a900473ffffffffffffffffffffffffffffffffffffffff1673ffffffffffffffffffffffffffffffffffffffff163373ffffffffffffffffffffffffffffffffffffffff16141515611a3a57600080fd5b600073ffffffffffffffffffffffffffffffffffffffff168873ffffffffffffffffffffffffffffffffffffffff1614151515611a7657600080fd5b8484905087879050141515611a8a57600080fd5b600260008973ffffffffffffffffffffffffffffffffffffffff1673ffffffffffffffffffffffffffffffffffffffff16815260200190815260200160002060009054906101000a900460ff161515611ae257600080fd5b60009250600091505b84849050821015611b2357611b14838686858181101515611b0857fe5b90506020020135612345565b92508180600101925050611aeb565b828873ffffffffffffffffffffffffffffffffffffffff166370a08231306040518263ffffffff167c0100000000000000000000000000000000000000000000000000000000028152600401808273ffffffffffffffffffffffffffffffffffffffff1673ffffffffffffffffffffffffffffffffffffffff168152602001915050602060405180830381600087803b158015611bbf57600080fd5b505af1158015611bd3573d6000803e3d6000fd5b505050506040513d6020811015611be957600080fd5b810190808051906020019092919050505010151515611c0757600080fd5b600090505b86869050811015611e78578773ffffffffffffffffffffffffffffffffffffffff1663a9059cbb8888848181101515611c4157fe5b9050602002013573ffffffffffffffffffffffffffffffffffffffff168787858181101515611c6c57fe5b905060200201356040518363ffffffff167c0100000000000000000000000000000000000000000000000000000000028152600401808373ffffffffffffffffffffffffffffffffffffffff1673ffffffffffffffffffffffffffffffffffffffff16815260200182815260200192505050602060405180830381600087803b158015611cf857600080fd5b505af1158015611d0c573d6000803e3d6000fd5b505050506040513d6020811015611d2257600080fd5b81019080805190602001909291905050501515611d3e57600080fd5b7f77cbc1263ce3589cffa12699a0fcc8c3ee72c04a3a35055a02a43d376928007f88308989858181101515611d6f57fe5b9050602002013573ffffffffffffffffffffffffffffffffffffffff168888868181101515611d9a57fe5b9050602002013542604051808673ffffffffffffffffffffffffffffffffffffffff1673ffffffffffffffffffffffffffffffffffffffff1681526020018573ffffffffffffffffffffffffffffffffffffffff1673ffffffffffffffffffffffffffffffffffffffff1681526020018473ffffffffffffffffffffffffffffffffffffffff1673ffffffffffffffffffffffffffffffffffffffff1681526020018381526020018267ffffffffffffffff1667ffffffffffffffff1681526020019550505050505060405180910390a18080600101915050611c0c565b5050505050505050565b60008060149054906101000a900460ff16151515611e9f57600080fd5b339050600260008273ffffffffffffffffffffffffffffffffffffffff1673ffffffffffffffffffffffffffffffffffffffff16815260200190815260200160002060009054906101000a900460ff161515611efa57600080fd5b611f80600360008373ffffffffffffffffffffffffffffffffffffffff1673ffffffffffffffffffffffffffffffffffffffff16815260200190815260200160002060008673ffffffffffffffffffffffffffffffffffffffff1673ffffffffffffffffffffffffffffffffffffffff1681526020019081526020016000205484612345565b600360008373ffffffffffffffffffffffffffffffffffffffff1673ffffffffffffffffffffffffffffffffffffffff16815260200190815260200160002060008673ffffffffffffffffffffffffffffffffffffffff1673ffffffffffffffffffffffffffffffffffffffff168152602001908152602001600020819055507fdcbc1c05240f31ff3ad067ef1ee35ce4997762752e3a095284754544f4c709d7818585600360008673ffffffffffffffffffffffffffffffffffffffff1673ffffffffffffffffffffffffffffffffffffffff16815260200190815260200160002060008973ffffffffffffffffffffffffffffffffffffffff1673ffffffffffffffffffffffffffffffffffffffff16815260200190815260200160002054604051808573ffffffffffffffffffffffffffffffffffffffff1673ffffffffffffffffffffffffffffffffffffffff1681526020018473ffffffffffffffffffffffffffffffffffffffff1673ffffffffffffffffffffffffffffffffffffffff16815260200183815260200182815260200194505050505060405180910390a150505050565b60026020528060005260406000206000915054906101000a900460ff1681565b606060018054806020026020016040519081016040528092919081815260200182805480156121cd57602002820191906000526020600020905b8160009054906101000a900473ffffffffffffffffffffffffffffffffffffffff1673ffffffffffffffffffffffffffffffffffffffff1681526020019060010190808311612183575b5050505050905090565b6000809054906101000a900473ffffffffffffffffffffffffffffffffffffffff1673ffffffffffffffffffffffffffffffffffffffff163373ffffffffffffffffffffffffffffffffffffffff1614151561223257600080fd5b600073ffffffffffffffffffffffffffffffffffffffff168173ffffffffffffffffffffffffffffffffffffffff161415151561226e57600080fd5b8073ffffffffffffffffffffffffffffffffffffffff166000809054906101000a900473ffffffffffffffffffffffffffffffffffffffff1673ffffffffffffffffffffffffffffffffffffffff167f8be0079c531659141344cd1fd0a4f28419497f9722a3daafe3b4186f6b6457e060405160405180910390a3806000806101000a81548173ffffffffffffffffffffffffffffffffffffffff021916908373ffffffffffffffffffffffffffffffffffffffff16021790555050565b600082821115151561233a57fe5b818303905092915050565b6000818301905082811015151561235857fe5b80905092915050565b81548183558181111561238857818360005260206000209182019101612387919061238d565b5b505050565b6123af91905b808211156123ab576000816000905550600101612393565b5090565b905600a165627a7a723058202e74fab046f1f0bbe2292ad62f08723ebb01a85f3555d88ce5700a64480794c40029",
  "source": "pragma solidity ^0.4.23;\n\nimport 'openzeppelin-solidity/contracts/math/SafeMath.sol';\nimport 'openzeppelin-solidity/contracts/ownership/Ownable.sol';\nimport 'openzeppelin-solidity/contracts/lifecycle/Pausable.sol';\nimport 'openzeppelin-solidity/contracts/token/ERC20/ERC20.sol';\nimport './interfaces/ERC223_receiving_contract.sol';\n\n\ncontract Bounty0xEscrow is Ownable, ERC223ReceivingContract, Pausable {\n\n    using SafeMath for uint256;\n\n    address[] supportedTokens;\n\n    mapping (address => bool) public tokenIsSupported;\n    mapping (address => mapping (address => uint)) public tokens; //mapping of token addresses to mapping of account balances (token=0 means Ether)\n\n    event Deposit(address token, address user, uint amount, uint balance);\n    event Distribution(address token, address host, address hunter, uint256 amount, uint64 timestamp);\n\n\n    constructor() public {\n        address Bounty0xToken = 0xd2d6158683aeE4Cc838067727209a0aAF4359de3;\n        supportedTokens.push(Bounty0xToken);\n        tokenIsSupported[Bounty0xToken] = true;\n    }\n\n\n    function addSupportedToken(address _token) public onlyOwner {\n        require(!tokenIsSupported[_token]);\n\n        supportedTokens.push(_token);\n        tokenIsSupported[_token] = true;\n    }\n\n    function removeSupportedToken(address _token) public onlyOwner {\n        require(tokenIsSupported[_token]);\n\n        for (uint i = 0; i < supportedTokens.length; i++) {\n            if (supportedTokens[i] == _token) {\n                uint256 indexOfLastToken = supportedTokens.length - 1;\n                supportedTokens[i] = supportedTokens[indexOfLastToken];\n                supportedTokens.length--;\n                tokenIsSupported[_token] = false;\n                return;\n            }\n        }\n    }\n\n    function getListOfSupportedTokens() view public returns(address[]) {\n        return supportedTokens;\n    }\n\n\n    function tokenFallback(address _from, uint _value, bytes _data) public whenNotPaused {\n        address _token = msg.sender;\n        require(tokenIsSupported[_token]);\n\n        tokens[_token][_from] = SafeMath.add(tokens[_token][_from], _value);\n        emit Deposit(_token, _from, _value, tokens[_token][_from]);\n    }\n\n\n    function depositToken(address _token, uint _amount) public whenNotPaused {\n        //remember to call Token(address).approve(this, amount) or this contract will not be able to do the transfer on your behalf.\n        require(_token != address(0));\n        require(tokenIsSupported[_token]);\n\n        require(ERC20(_token).transferFrom(msg.sender, this, _amount));\n        tokens[_token][msg.sender] = SafeMath.add(tokens[_token][msg.sender], _amount);\n\n        emit Deposit(_token, msg.sender, _amount, tokens[_token][msg.sender]);\n    }\n\n\n    function distributeTokenToAddress(address _token, address _host, address _hunter, uint256 _amount) external onlyOwner {\n        require(_token != address(0));\n        require(_hunter != address(0));\n        require(tokenIsSupported[_token]);\n        require(tokens[_token][_host] >= _amount);\n\n        tokens[_token][_host] = SafeMath.sub(tokens[_token][_host], _amount);\n        require(ERC20(_token).transfer(_hunter, _amount));\n\n        emit Distribution(_token, _host, _hunter, _amount, uint64(now));\n    }\n\n    function distributeTokenToAddressesAndAmounts(address _token, address _host, address[] _hunters, uint256[] _amounts) external onlyOwner {\n        require(_token != address(0));\n        require(_host != address(0));\n        require(_hunters.length == _amounts.length);\n        require(tokenIsSupported[_token]);\n\n        uint256 totalAmount = 0;\n        for (uint j = 0; j < _amounts.length; j++) {\n            totalAmount = SafeMath.add(totalAmount, _amounts[j]);\n        }\n        require(tokens[_token][_host] >= totalAmount);\n        tokens[_token][_host] = SafeMath.sub(tokens[_token][_host], totalAmount);\n\n        for (uint i = 0; i < _hunters.length; i++) {\n            require(ERC20(_token).transfer(_hunters[i], _amounts[i]));\n\n            emit Distribution(_token, _host, _hunters[i], _amounts[i], uint64(now));\n        }\n    }\n\n    function distributeTokenToAddressesAndAmountsWithoutHost(address _token, address[] _hunters, uint256[] _amounts) external onlyOwner {\n        require(_token != address(0));\n        require(_hunters.length == _amounts.length);\n        require(tokenIsSupported[_token]);\n\n        uint256 totalAmount = 0;\n        for (uint j = 0; j < _amounts.length; j++) {\n            totalAmount = SafeMath.add(totalAmount, _amounts[j]);\n        }\n        require(ERC20(_token).balanceOf(this) >= totalAmount);\n\n        for (uint i = 0; i < _hunters.length; i++) {\n            require(ERC20(_token).transfer(_hunters[i], _amounts[i]));\n\n            emit Distribution(_token, this, _hunters[i], _amounts[i], uint64(now));\n        }\n    }\n\n}\n",
  "sourcePath": "/Users/Alexander/Desktop/Bounty0xEscrowContract/contracts/Bounty0xEscrow.sol",
  "compiler": {
    "name": "solc",
    "version": "0.4.23+commit.124ca40d.Emscripten.clang"
  },
  "schemaVersion": "2.0.0",
  "updatedAt": "2018-05-02T12:21:33.216Z"
}