{
  "contractName": "Bounty0xEscrow",
  "abi": [
    {
      "constant": false,
      "inputs": [
        {
          "name": "_token",
          "type": "address"
        },
        {
          "name": "_host",
          "type": "address"
        },
        {
          "name": "_hunter",
          "type": "address"
        },
        {
          "name": "_amount",
          "type": "uint256"
        }
      ],
      "name": "distributeTokenToAddress",
      "outputs": [],
      "payable": false,
      "stateMutability": "nonpayable",
      "type": "function"
    },
    {
      "constant": false,
      "inputs": [
        {
          "name": "_token",
          "type": "address"
        },
        {
          "name": "_amount",
          "type": "uint256"
        }
      ],
      "name": "depositToken",
      "outputs": [],
      "payable": false,
      "stateMutability": "nonpayable",
      "type": "function"
    },
    {
      "constant": false,
      "inputs": [
        {
          "name": "_token",
          "type": "address"
        },
        {
          "name": "_host",
          "type": "address"
        },
        {
          "name": "_totalAmount",
          "type": "uint256"
        },
        {
          "name": "_hunters",
          "type": "address[]"
        },
        {
          "name": "_amounts",
          "type": "uint256[]"
        }
      ],
      "name": "distributeTokenToAddressesAndAmounts",
      "outputs": [],
      "payable": false,
      "stateMutability": "nonpayable",
      "type": "function"
    },
    {
      "constant": true,
      "inputs": [
        {
          "name": "_id",
          "type": "uint256"
        }
      ],
      "name": "getDistribution",
      "outputs": [
        {
          "name": "",
          "type": "address"
        },
        {
          "name": "",
          "type": "address"
        },
        {
          "name": "",
          "type": "address"
        },
        {
          "name": "",
          "type": "uint256"
        },
        {
          "name": "",
          "type": "uint64"
        }
      ],
      "payable": false,
      "stateMutability": "view",
      "type": "function"
    },
    {
      "constant": true,
      "inputs": [
        {
          "name": "",
          "type": "address"
        },
        {
          "name": "",
          "type": "address"
        }
      ],
      "name": "tokens",
      "outputs": [
        {
          "name": "",
          "type": "uint256"
        }
      ],
      "payable": false,
      "stateMutability": "view",
      "type": "function"
    },
    {
      "constant": true,
      "inputs": [],
      "name": "numberOfDistributions",
      "outputs": [
        {
          "name": "",
          "type": "uint256"
        }
      ],
      "payable": false,
      "stateMutability": "view",
      "type": "function"
    },
    {
      "constant": false,
      "inputs": [
        {
          "name": "_token",
          "type": "address"
        }
      ],
      "name": "addSupportedToken",
      "outputs": [],
      "payable": false,
      "stateMutability": "nonpayable",
      "type": "function"
    },
    {
      "constant": true,
      "inputs": [],
      "name": "owner",
      "outputs": [
        {
          "name": "",
          "type": "address"
        }
      ],
      "payable": false,
      "stateMutability": "view",
      "type": "function"
    },
    {
      "constant": true,
      "inputs": [
        {
          "name": "",
          "type": "address"
        }
      ],
      "name": "tokenIsSupported",
      "outputs": [
        {
          "name": "",
          "type": "bool"
        }
      ],
      "payable": false,
      "stateMutability": "view",
      "type": "function"
    },
    {
      "constant": true,
      "inputs": [],
      "name": "getListOfSupportedTokens",
      "outputs": [
        {
          "name": "",
          "type": "address[]"
        }
      ],
      "payable": false,
      "stateMutability": "view",
      "type": "function"
    },
    {
      "constant": false,
      "inputs": [
        {
          "name": "newOwner",
          "type": "address"
        }
      ],
      "name": "transferOwnership",
      "outputs": [],
      "payable": false,
      "stateMutability": "nonpayable",
      "type": "function"
    },
    {
      "inputs": [],
      "payable": false,
      "stateMutability": "nonpayable",
      "type": "constructor"
    },
    {
      "anonymous": false,
      "inputs": [
        {
          "indexed": false,
          "name": "token",
          "type": "address"
        },
        {
          "indexed": false,
          "name": "user",
          "type": "address"
        },
        {
          "indexed": false,
          "name": "amount",
          "type": "uint256"
        },
        {
          "indexed": false,
          "name": "balance",
          "type": "uint256"
        }
      ],
      "name": "NewDeposit",
      "type": "event"
    },
    {
      "anonymous": false,
      "inputs": [
        {
          "indexed": false,
          "name": "token",
          "type": "address"
        },
        {
          "indexed": false,
          "name": "host",
          "type": "address"
        },
        {
          "indexed": false,
          "name": "hunter",
          "type": "address"
        },
        {
          "indexed": false,
          "name": "amount",
          "type": "uint256"
        },
        {
          "indexed": false,
          "name": "timestamp",
          "type": "uint64"
        }
      ],
      "name": "NewDistribution",
      "type": "event"
    },
    {
      "anonymous": false,
      "inputs": [
        {
          "indexed": true,
          "name": "previousOwner",
          "type": "address"
        },
        {
          "indexed": true,
          "name": "newOwner",
          "type": "address"
        }
      ],
      "name": "OwnershipTransferred",
      "type": "event"
    }
  ],
  "bytecode": "0x606060405234156200001057600080fd5b6000336000806101000a81548173ffffffffffffffffffffffffffffffffffffffff021916908373ffffffffffffffffffffffffffffffffffffffff16021790555073d2d6158683aee4cc838067727209a0aaf4359de39050600180548060010182816200007f91906200012d565b9160005260206000209001600083909190916101000a81548173ffffffffffffffffffffffffffffffffffffffff021916908373ffffffffffffffffffffffffffffffffffffffff160217905550506001600360008373ffffffffffffffffffffffffffffffffffffffff1673ffffffffffffffffffffffffffffffffffffffff16815260200190815260200160002060006101000a81548160ff0219169083151502179055505062000184565b81548183558181151162000157578183600052602060002091820191016200015691906200015c565b5b505050565b6200018191905b808211156200017d57600081600090555060010162000163565b5090565b90565b611d0b80620001946000396000f3006060604052600436106100af576000357c0100000000000000000000000000000000000000000000000000000000900463ffffffff1680632b44e5be146100b4578063338b5dea14610134578063389cc9db146101765780633b345a87146101ff578063508493bc146102ea5780636933d6e3146103565780636d69fcaf1461037f5780638da5cb5b146103b8578063e70619501461040d578063ea4e6ded1461045e578063f2fde38b146104c8575b600080fd5b34156100bf57600080fd5b610132600480803573ffffffffffffffffffffffffffffffffffffffff1690602001909190803573ffffffffffffffffffffffffffffffffffffffff1690602001909190803573ffffffffffffffffffffffffffffffffffffffff16906020019091908035906020019091905050610501565b005b341561013f57600080fd5b610174600480803573ffffffffffffffffffffffffffffffffffffffff16906020019091908035906020019091905050610b3d565b005b341561018157600080fd5b6101fd600480803573ffffffffffffffffffffffffffffffffffffffff1690602001909190803573ffffffffffffffffffffffffffffffffffffffff1690602001909190803590602001909190803590602001908201803590602001919091929080359060200190820180359060200191909192905050610f03565b005b341561020a57600080fd5b6102206004808035906020019091905050611630565b604051808673ffffffffffffffffffffffffffffffffffffffff1673ffffffffffffffffffffffffffffffffffffffff1681526020018573ffffffffffffffffffffffffffffffffffffffff1673ffffffffffffffffffffffffffffffffffffffff1681526020018473ffffffffffffffffffffffffffffffffffffffff1673ffffffffffffffffffffffffffffffffffffffff1681526020018381526020018267ffffffffffffffff1667ffffffffffffffff1681526020019550505050505060405180910390f35b34156102f557600080fd5b610340600480803573ffffffffffffffffffffffffffffffffffffffff1690602001909190803573ffffffffffffffffffffffffffffffffffffffff1690602001909190505061170c565b6040518082815260200191505060405180910390f35b341561036157600080fd5b610369611731565b6040518082815260200191505060405180910390f35b341561038a57600080fd5b6103b6600480803573ffffffffffffffffffffffffffffffffffffffff1690602001909190505061173e565b005b34156103c357600080fd5b6103cb6118b0565b604051808273ffffffffffffffffffffffffffffffffffffffff1673ffffffffffffffffffffffffffffffffffffffff16815260200191505060405180910390f35b341561041857600080fd5b610444600480803573ffffffffffffffffffffffffffffffffffffffff169060200190919050506118d5565b604051808215151515815260200191505060405180910390f35b341561046957600080fd5b6104716118f5565b6040518080602001828103825283818151815260200191508051906020019060200280838360005b838110156104b4578082015181840152602081019050610499565b505050509050019250505060405180910390f35b34156104d357600080fd5b6104ff600480803573ffffffffffffffffffffffffffffffffffffffff16906020019091905050611989565b005b610509611b15565b6000809054906101000a900473ffffffffffffffffffffffffffffffffffffffff1673ffffffffffffffffffffffffffffffffffffffff163373ffffffffffffffffffffffffffffffffffffffff1614151561056457600080fd5b600073ffffffffffffffffffffffffffffffffffffffff168573ffffffffffffffffffffffffffffffffffffffff16141515156105a057600080fd5b600073ffffffffffffffffffffffffffffffffffffffff168373ffffffffffffffffffffffffffffffffffffffff16141515156105dc57600080fd5b600360008673ffffffffffffffffffffffffffffffffffffffff1673ffffffffffffffffffffffffffffffffffffffff16815260200190815260200160002060009054906101000a900460ff16151561063457600080fd5b81600460008773ffffffffffffffffffffffffffffffffffffffff1673ffffffffffffffffffffffffffffffffffffffff16815260200190815260200160002060008673ffffffffffffffffffffffffffffffffffffffff1673ffffffffffffffffffffffffffffffffffffffff16815260200190815260200160002054101515156106bf57600080fd5b610745600460008773ffffffffffffffffffffffffffffffffffffffff1673ffffffffffffffffffffffffffffffffffffffff16815260200190815260200160002060008673ffffffffffffffffffffffffffffffffffffffff1673ffffffffffffffffffffffffffffffffffffffff1681526020019081526020016000205483611ade565b600460008773ffffffffffffffffffffffffffffffffffffffff1673ffffffffffffffffffffffffffffffffffffffff16815260200190815260200160002060008673ffffffffffffffffffffffffffffffffffffffff1673ffffffffffffffffffffffffffffffffffffffff168152602001908152602001600020819055508473ffffffffffffffffffffffffffffffffffffffff1663a9059cbb84846000604051602001526040518363ffffffff167c0100000000000000000000000000000000000000000000000000000000028152600401808373ffffffffffffffffffffffffffffffffffffffff1673ffffffffffffffffffffffffffffffffffffffff16815260200182815260200192505050602060405180830381600087803b151561087057600080fd5b6102c65a03f1151561088157600080fd5b50505060405180519050151561089657600080fd5b60a0604051908101604052808673ffffffffffffffffffffffffffffffffffffffff1681526020018573ffffffffffffffffffffffffffffffffffffffff1681526020018473ffffffffffffffffffffffffffffffffffffffff1681526020018381526020014267ffffffffffffffff168152509050600280548060010182816109209190611b91565b9160005260206000209060050201600083909190915060008201518160000160006101000a81548173ffffffffffffffffffffffffffffffffffffffff021916908373ffffffffffffffffffffffffffffffffffffffff16021790555060208201518160010160006101000a81548173ffffffffffffffffffffffffffffffffffffffff021916908373ffffffffffffffffffffffffffffffffffffffff16021790555060408201518160020160006101000a81548173ffffffffffffffffffffffffffffffffffffffff021916908373ffffffffffffffffffffffffffffffffffffffff1602179055506060820151816003015560808201518160040160006101000a81548167ffffffffffffffff021916908367ffffffffffffffff1602179055505050507fbc2121e1d1907eaca5843b6e14c05cde9c20bd385eb3b9d09a52dbe03b7dee988585858542604051808673ffffffffffffffffffffffffffffffffffffffff1673ffffffffffffffffffffffffffffffffffffffff1681526020018573ffffffffffffffffffffffffffffffffffffffff1673ffffffffffffffffffffffffffffffffffffffff1681526020018473ffffffffffffffffffffffffffffffffffffffff1673ffffffffffffffffffffffffffffffffffffffff1681526020018381526020018267ffffffffffffffff1667ffffffffffffffff1681526020019550505050505060405180910390a15050505050565b600073ffffffffffffffffffffffffffffffffffffffff168273ffffffffffffffffffffffffffffffffffffffff1614151515610b7957600080fd5b600360008373ffffffffffffffffffffffffffffffffffffffff1673ffffffffffffffffffffffffffffffffffffffff16815260200190815260200160002060009054906101000a900460ff161515610bd157600080fd5b8173ffffffffffffffffffffffffffffffffffffffff166323b872dd3330846000604051602001526040518463ffffffff167c0100000000000000000000000000000000000000000000000000000000028152600401808473ffffffffffffffffffffffffffffffffffffffff1673ffffffffffffffffffffffffffffffffffffffff1681526020018373ffffffffffffffffffffffffffffffffffffffff1673ffffffffffffffffffffffffffffffffffffffff1681526020018281526020019350505050602060405180830381600087803b1515610cb057600080fd5b6102c65a03f11515610cc157600080fd5b505050604051805190501515610cd657600080fd5b610d5c600460008473ffffffffffffffffffffffffffffffffffffffff1673ffffffffffffffffffffffffffffffffffffffff16815260200190815260200160002060003373ffffffffffffffffffffffffffffffffffffffff1673ffffffffffffffffffffffffffffffffffffffff1681526020019081526020016000205482611af7565b600460008473ffffffffffffffffffffffffffffffffffffffff1673ffffffffffffffffffffffffffffffffffffffff16815260200190815260200160002060003373ffffffffffffffffffffffffffffffffffffffff1673ffffffffffffffffffffffffffffffffffffffff168152602001908152602001600020819055507f11c07b06dbb9c6270cc15a9624df905cd028743d92ef3e9ae712ac12869c5376823383600460008773ffffffffffffffffffffffffffffffffffffffff1673ffffffffffffffffffffffffffffffffffffffff16815260200190815260200160002060003373ffffffffffffffffffffffffffffffffffffffff1673ffffffffffffffffffffffffffffffffffffffff16815260200190815260200160002054604051808573ffffffffffffffffffffffffffffffffffffffff1673ffffffffffffffffffffffffffffffffffffffff1681526020018473ffffffffffffffffffffffffffffffffffffffff1673ffffffffffffffffffffffffffffffffffffffff16815260200183815260200182815260200194505050505060405180910390a15050565b6000610f0d611b15565b6000809054906101000a900473ffffffffffffffffffffffffffffffffffffffff1673ffffffffffffffffffffffffffffffffffffffff163373ffffffffffffffffffffffffffffffffffffffff16141515610f6857600080fd5b600073ffffffffffffffffffffffffffffffffffffffff168973ffffffffffffffffffffffffffffffffffffffff1614151515610fa457600080fd5b600073ffffffffffffffffffffffffffffffffffffffff168873ffffffffffffffffffffffffffffffffffffffff1614151515610fe057600080fd5b8383905086869050141515610ff457600080fd5b600360008a73ffffffffffffffffffffffffffffffffffffffff1673ffffffffffffffffffffffffffffffffffffffff16815260200190815260200160002060009054906101000a900460ff16151561104c57600080fd5b86600460008b73ffffffffffffffffffffffffffffffffffffffff1673ffffffffffffffffffffffffffffffffffffffff16815260200190815260200160002060008a73ffffffffffffffffffffffffffffffffffffffff1673ffffffffffffffffffffffffffffffffffffffff16815260200190815260200160002054101515156110d757600080fd5b61115d600460008b73ffffffffffffffffffffffffffffffffffffffff1673ffffffffffffffffffffffffffffffffffffffff16815260200190815260200160002060008a73ffffffffffffffffffffffffffffffffffffffff1673ffffffffffffffffffffffffffffffffffffffff1681526020019081526020016000205488611ade565b600460008b73ffffffffffffffffffffffffffffffffffffffff1673ffffffffffffffffffffffffffffffffffffffff16815260200190815260200160002060008a73ffffffffffffffffffffffffffffffffffffffff1673ffffffffffffffffffffffffffffffffffffffff16815260200190815260200160002081905550600091505b85859050821015611625578873ffffffffffffffffffffffffffffffffffffffff1663a9059cbb878785818110151561121757fe5b9050602002013573ffffffffffffffffffffffffffffffffffffffff16868686818110151561124257fe5b905060200201356000604051602001526040518363ffffffff167c0100000000000000000000000000000000000000000000000000000000028152600401808373ffffffffffffffffffffffffffffffffffffffff1673ffffffffffffffffffffffffffffffffffffffff16815260200182815260200192505050602060405180830381600087803b15156112d657600080fd5b6102c65a03f115156112e757600080fd5b5050506040518051905015156112fc57600080fd5b60a0604051908101604052808a73ffffffffffffffffffffffffffffffffffffffff1681526020018973ffffffffffffffffffffffffffffffffffffffff168152602001878785818110151561134e57fe5b9050602002013573ffffffffffffffffffffffffffffffffffffffff1673ffffffffffffffffffffffffffffffffffffffff168152602001858585818110151561139457fe5b9050602002013581526020014267ffffffffffffffff168152509050600280548060010182816113c49190611b91565b9160005260206000209060050201600083909190915060008201518160000160006101000a81548173ffffffffffffffffffffffffffffffffffffffff021916908373ffffffffffffffffffffffffffffffffffffffff16021790555060208201518160010160006101000a81548173ffffffffffffffffffffffffffffffffffffffff021916908373ffffffffffffffffffffffffffffffffffffffff16021790555060408201518160020160006101000a81548173ffffffffffffffffffffffffffffffffffffffff021916908373ffffffffffffffffffffffffffffffffffffffff1602179055506060820151816003015560808201518160040160006101000a81548167ffffffffffffffff021916908367ffffffffffffffff1602179055505050507fbc2121e1d1907eaca5843b6e14c05cde9c20bd385eb3b9d09a52dbe03b7dee988989888886818110151561151c57fe5b9050602002013573ffffffffffffffffffffffffffffffffffffffff16878787818110151561154757fe5b9050602002013542604051808673ffffffffffffffffffffffffffffffffffffffff1673ffffffffffffffffffffffffffffffffffffffff1681526020018573ffffffffffffffffffffffffffffffffffffffff1673ffffffffffffffffffffffffffffffffffffffff1681526020018473ffffffffffffffffffffffffffffffffffffffff1673ffffffffffffffffffffffffffffffffffffffff1681526020018381526020018267ffffffffffffffff1667ffffffffffffffff1681526020019550505050505060405180910390a181806001019250506111e2565b505050505050505050565b6000806000806000806002805490508710151561164c57600080fd5b60028781548110151561165b57fe5b906000526020600020906005020190508060000160009054906101000a900473ffffffffffffffffffffffffffffffffffffffff168160010160009054906101000a900473ffffffffffffffffffffffffffffffffffffffff168260020160009054906101000a900473ffffffffffffffffffffffffffffffffffffffff1683600301548460040160009054906101000a900467ffffffffffffffff16955095509550955095505091939590929450565b6004602052816000526040600020602052806000526040600020600091509150505481565b6000600280549050905090565b6000809054906101000a900473ffffffffffffffffffffffffffffffffffffffff1673ffffffffffffffffffffffffffffffffffffffff163373ffffffffffffffffffffffffffffffffffffffff1614151561179957600080fd5b600360008273ffffffffffffffffffffffffffffffffffffffff1673ffffffffffffffffffffffffffffffffffffffff16815260200190815260200160002060009054906101000a900460ff161515156117f257600080fd5b600180548060010182816118069190611bc3565b9160005260206000209001600083909190916101000a81548173ffffffffffffffffffffffffffffffffffffffff021916908373ffffffffffffffffffffffffffffffffffffffff160217905550506001600360008373ffffffffffffffffffffffffffffffffffffffff1673ffffffffffffffffffffffffffffffffffffffff16815260200190815260200160002060006101000a81548160ff02191690831515021790555050565b6000809054906101000a900473ffffffffffffffffffffffffffffffffffffffff1681565b60036020528060005260406000206000915054906101000a900460ff1681565b6118fd611bef565b600180548060200260200160405190810160405280929190818152602001828054801561197f57602002820191906000526020600020905b8160009054906101000a900473ffffffffffffffffffffffffffffffffffffffff1673ffffffffffffffffffffffffffffffffffffffff1681526020019060010190808311611935575b5050505050905090565b6000809054906101000a900473ffffffffffffffffffffffffffffffffffffffff1673ffffffffffffffffffffffffffffffffffffffff163373ffffffffffffffffffffffffffffffffffffffff161415156119e457600080fd5b600073ffffffffffffffffffffffffffffffffffffffff168173ffffffffffffffffffffffffffffffffffffffff1614151515611a2057600080fd5b8073ffffffffffffffffffffffffffffffffffffffff166000809054906101000a900473ffffffffffffffffffffffffffffffffffffffff1673ffffffffffffffffffffffffffffffffffffffff167f8be0079c531659141344cd1fd0a4f28419497f9722a3daafe3b4186f6b6457e060405160405180910390a3806000806101000a81548173ffffffffffffffffffffffffffffffffffffffff021916908373ffffffffffffffffffffffffffffffffffffffff16021790555050565b6000828211151515611aec57fe5b818303905092915050565b6000808284019050838110151515611b0b57fe5b8091505092915050565b60a060405190810160405280600073ffffffffffffffffffffffffffffffffffffffff168152602001600073ffffffffffffffffffffffffffffffffffffffff168152602001600073ffffffffffffffffffffffffffffffffffffffff16815260200160008152602001600067ffffffffffffffff1681525090565b815481835581811511611bbe57600502816005028360005260206000209182019101611bbd9190611c03565b5b505050565b815481835581811511611bea57818360005260206000209182019101611be99190611cba565b5b505050565b602060405190810160405280600081525090565b611cb791905b80821115611cb357600080820160006101000a81549073ffffffffffffffffffffffffffffffffffffffff02191690556001820160006101000a81549073ffffffffffffffffffffffffffffffffffffffff02191690556002820160006101000a81549073ffffffffffffffffffffffffffffffffffffffff021916905560038201600090556004820160006101000a81549067ffffffffffffffff021916905550600501611c09565b5090565b90565b611cdc91905b80821115611cd8576000816000905550600101611cc0565b5090565b905600a165627a7a72305820e6fb23d54dfd2066c402cd355988ff124ce0deba4b9614a7301072d6d0e528c60029",
  "source": "pragma solidity ^0.4.18;\n\n\n/**\n * @title SafeMath\n * @dev Math operations with safety checks that throw on error\n */\nlibrary SafeMath {\n  function mul(uint256 a, uint256 b) internal pure returns (uint256) {\n    if (a == 0) {\n      return 0;\n    }\n    uint256 c = a * b;\n    assert(c / a == b);\n    return c;\n  }\n\n  function div(uint256 a, uint256 b) internal pure returns (uint256) {\n    // assert(b > 0); // Solidity automatically throws when dividing by 0\n    uint256 c = a / b;\n    // assert(a == b * c + a % b); // There is no case in which this doesn't hold\n    return c;\n  }\n\n  function sub(uint256 a, uint256 b) internal pure returns (uint256) {\n    assert(b <= a);\n    return a - b;\n  }\n\n  function add(uint256 a, uint256 b) internal pure returns (uint256) {\n    uint256 c = a + b;\n    assert(c >= a);\n    return c;\n  }\n}\n\n\n\n\n/**\n * @title ERC20Basic\n * @dev Simpler version of ERC20 interface\n * @dev see https://github.com/ethereum/EIPs/issues/179\n */\ncontract ERC20Basic {\n  uint256 public totalSupply;\n  function balanceOf(address who) public constant returns (uint256);\n  function transfer(address to, uint256 value) public returns (bool);\n  event Transfer(address indexed from, address indexed to, uint256 value);\n}\n\n/**\n * @title ERC20 interface\n * @dev see https://github.com/ethereum/EIPs/issues/20\n */\ncontract ERC20 is ERC20Basic {\n  function allowance(address owner, address spender) public constant returns (uint256);\n  function transferFrom(address from, address to, uint256 value) public returns (bool);\n  function approve(address spender, uint256 value) public returns (bool);\n  event Approval(address indexed owner, address indexed spender, uint256 value);\n}\n\n\n\n\n/**\n * @title Ownable\n * @dev The Ownable contract has an owner address, and provides basic authorization control\n * functions, this simplifies the implementation of \"user permissions\".\n */\ncontract Ownable {\n  address public owner;\n\n  event OwnershipTransferred(address indexed previousOwner, address indexed newOwner);\n\n  function Ownable() public {\n    owner = msg.sender;\n  }\n\n  modifier onlyOwner() {\n    require(msg.sender == owner);\n    _;\n  }\n\n  function transferOwnership(address newOwner) public onlyOwner {\n    require(newOwner != address(0));\n    OwnershipTransferred(owner, newOwner);\n    owner = newOwner;\n  }\n}\n\n\n\n\ncontract Bounty0xEscrow is Ownable {\n\n    using SafeMath for uint256;\n\n    struct Distribution {\n        address token;\n        address sender;\n        address reciever;\n        uint256 amount;\n        uint64 timestamp;\n    }\n\n    address[] supportedTokens;\n    Distribution[] distributions;\n\n    mapping (address => bool) public tokenIsSupported;\n    mapping (address => mapping (address => uint)) public tokens; //mapping of token addresses to mapping of account balances (token=0 means Ether)\n\n    event NewDeposit(address token, address user, uint amount, uint balance);\n    event NewDistribution(address token, address host, address hunter, uint256 amount, uint64 timestamp);\n\n\n    function Bounty0xEscrow() public {\n        address Bounty0xToken = 0xd2d6158683aeE4Cc838067727209a0aAF4359de3;\n        supportedTokens.push(Bounty0xToken);\n        tokenIsSupported[Bounty0xToken] = true;\n    }\n\n\n    function addSupportedToken(address _token) public onlyOwner {\n        require(!tokenIsSupported[_token]);\n        supportedTokens.push(_token);\n        tokenIsSupported[_token] = true;\n    }\n\n\n    function depositToken(address _token, uint _amount) public {\n        //remember to call Token(address).approve(this, amount) or this contract will not be able to do the transfer on your behalf.\n        require(_token != address(0));\n        require(tokenIsSupported[_token]);\n        require(ERC20(_token).transferFrom(msg.sender, this, _amount));\n        tokens[_token][msg.sender] = SafeMath.add(tokens[_token][msg.sender], _amount);\n        NewDeposit(_token, msg.sender, _amount, tokens[_token][msg.sender]);\n    }\n\n\n    function distributeTokenToAddressesAndAmounts(address _token, address _host, uint256 _totalAmount, address[] _hunters, uint256[] _amounts) external onlyOwner {\n        require(_token != address(0));\n        require(_host != address(0));\n        require(_hunters.length == _amounts.length);\n        require(tokenIsSupported[_token]);\n        require(tokens[_token][_host] >= _totalAmount);\n\n        tokens[_token][_host] = SafeMath.sub(tokens[_token][_host], _totalAmount);\n        for (uint i = 0; i < _hunters.length; i++) {\n            require(ERC20(_token).transfer(_hunters[i], _amounts[i]));\n\n            Distribution memory newDist = Distribution({\n                token: _token,\n                sender: _host,\n                reciever: _hunters[i],\n                amount: _amounts[i],\n                timestamp: uint64(now)\n            });\n\n            distributions.push(newDist);\n\n            NewDistribution(_token, _host, _hunters[i], _amounts[i], uint64(now));\n        }\n    }\n\n\n    function distributeTokenToAddress(address _token, address _host, address _hunter, uint256 _amount) external onlyOwner {\n        require(_token != address(0));\n        require(_hunter != address(0));\n        require(tokenIsSupported[_token]);\n        require(tokens[_token][_host] >= _amount);\n\n        tokens[_token][_host] = SafeMath.sub(tokens[_token][_host], _amount);\n        require(ERC20(_token).transfer(_hunter, _amount));\n\n        Distribution memory newDist = Distribution({\n            token: _token,\n            sender: _host,\n            reciever: _hunter,\n            amount: _amount,\n            timestamp: uint64(now)\n        });\n\n        distributions.push(newDist);\n\n        NewDistribution(_token, _host, _hunter, _amount, uint64(now));\n    }\n\n\n    function getListOfSupportedTokens() view public returns(address[]) {\n        return supportedTokens;\n    }\n\n    function numberOfDistributions() view public returns(uint256) {\n        return distributions.length;\n    }\n\n    function getDistribution(uint256 _id) view public returns(address, address, address, uint256, uint64) {\n        require(_id < distributions.length);\n        Distribution storage dist = distributions[_id];\n        return (\n            dist.token,\n            dist.sender,\n            dist.reciever,\n            dist.amount,\n            dist.timestamp\n        );\n    }\n\n}\n",
  "sourcePath": "/Users/Alexander/Desktop/Bounty0xEscrowContract/contracts/Bounty0xEscrow.sol",
  "compiler": {
    "name": "solc",
    "version": "0.4.18+commit.9cf6e910.Emscripten.clang"
  },
  "schemaVersion": "1.0.1",
  "updatedAt": "2018-01-17T20:58:20.691Z"
}