{
  "contractName": "Bounty0xEscrow",
  "abi": [
    {
      "constant": false,
      "inputs": [
        {
          "name": "_token",
          "type": "address"
        },
        {
          "name": "_host",
          "type": "address"
        },
        {
          "name": "_hunter",
          "type": "address"
        },
        {
          "name": "_amount",
          "type": "uint256"
        }
      ],
      "name": "distributeTokenToAddress",
      "outputs": [],
      "payable": false,
      "stateMutability": "nonpayable",
      "type": "function"
    },
    {
      "constant": false,
      "inputs": [
        {
          "name": "_token",
          "type": "address"
        },
        {
          "name": "_amount",
          "type": "uint256"
        }
      ],
      "name": "depositToken",
      "outputs": [],
      "payable": false,
      "stateMutability": "nonpayable",
      "type": "function"
    },
    {
      "constant": true,
      "inputs": [
        {
          "name": "",
          "type": "address"
        },
        {
          "name": "",
          "type": "address"
        }
      ],
      "name": "tokens",
      "outputs": [
        {
          "name": "",
          "type": "uint256"
        }
      ],
      "payable": false,
      "stateMutability": "view",
      "type": "function"
    },
    {
      "constant": false,
      "inputs": [
        {
          "name": "_token",
          "type": "address"
        },
        {
          "name": "_host",
          "type": "address"
        },
        {
          "name": "_hunters",
          "type": "address[]"
        },
        {
          "name": "_amounts",
          "type": "uint256[]"
        }
      ],
      "name": "distributeTokenToAddressesAndAmounts",
      "outputs": [],
      "payable": false,
      "stateMutability": "nonpayable",
      "type": "function"
    },
    {
      "constant": false,
      "inputs": [
        {
          "name": "_token",
          "type": "address"
        }
      ],
      "name": "addSupportedToken",
      "outputs": [],
      "payable": false,
      "stateMutability": "nonpayable",
      "type": "function"
    },
    {
      "constant": false,
      "inputs": [
        {
          "name": "_token",
          "type": "address"
        }
      ],
      "name": "removeSupportedToken",
      "outputs": [],
      "payable": false,
      "stateMutability": "nonpayable",
      "type": "function"
    },
    {
      "constant": true,
      "inputs": [],
      "name": "owner",
      "outputs": [
        {
          "name": "",
          "type": "address"
        }
      ],
      "payable": false,
      "stateMutability": "view",
      "type": "function"
    },
    {
      "constant": false,
      "inputs": [
        {
          "name": "_token",
          "type": "address"
        },
        {
          "name": "_hunters",
          "type": "address[]"
        },
        {
          "name": "_amounts",
          "type": "uint256[]"
        }
      ],
      "name": "distributeTokenToAddressesAndAmountsWithoutHost",
      "outputs": [],
      "payable": false,
      "stateMutability": "nonpayable",
      "type": "function"
    },
    {
      "constant": false,
      "inputs": [
        {
          "name": "_from",
          "type": "address"
        },
        {
          "name": "_value",
          "type": "uint256"
        },
        {
          "name": "_data",
          "type": "bytes"
        }
      ],
      "name": "tokenFallback",
      "outputs": [],
      "payable": false,
      "stateMutability": "nonpayable",
      "type": "function"
    },
    {
      "constant": true,
      "inputs": [
        {
          "name": "",
          "type": "address"
        }
      ],
      "name": "tokenIsSupported",
      "outputs": [
        {
          "name": "",
          "type": "bool"
        }
      ],
      "payable": false,
      "stateMutability": "view",
      "type": "function"
    },
    {
      "constant": true,
      "inputs": [],
      "name": "getListOfSupportedTokens",
      "outputs": [
        {
          "name": "",
          "type": "address[]"
        }
      ],
      "payable": false,
      "stateMutability": "view",
      "type": "function"
    },
    {
      "constant": false,
      "inputs": [
        {
          "name": "newOwner",
          "type": "address"
        }
      ],
      "name": "transferOwnership",
      "outputs": [],
      "payable": false,
      "stateMutability": "nonpayable",
      "type": "function"
    },
    {
      "inputs": [],
      "payable": false,
      "stateMutability": "nonpayable",
      "type": "constructor"
    },
    {
      "anonymous": false,
      "inputs": [
        {
          "indexed": false,
          "name": "token",
          "type": "address"
        },
        {
          "indexed": false,
          "name": "user",
          "type": "address"
        },
        {
          "indexed": false,
          "name": "amount",
          "type": "uint256"
        },
        {
          "indexed": false,
          "name": "balance",
          "type": "uint256"
        }
      ],
      "name": "Deposit",
      "type": "event"
    },
    {
      "anonymous": false,
      "inputs": [
        {
          "indexed": false,
          "name": "token",
          "type": "address"
        },
        {
          "indexed": false,
          "name": "host",
          "type": "address"
        },
        {
          "indexed": false,
          "name": "hunter",
          "type": "address"
        },
        {
          "indexed": false,
          "name": "amount",
          "type": "uint256"
        },
        {
          "indexed": false,
          "name": "timestamp",
          "type": "uint64"
        }
      ],
      "name": "Distribution",
      "type": "event"
    },
    {
      "anonymous": false,
      "inputs": [
        {
          "indexed": true,
          "name": "previousOwner",
          "type": "address"
        },
        {
          "indexed": true,
          "name": "newOwner",
          "type": "address"
        }
      ],
      "name": "OwnershipTransferred",
      "type": "event"
    }
  ],
  "bytecode": "0x606060405234156200001057600080fd5b6000336000806101000a81548173ffffffffffffffffffffffffffffffffffffffff021916908373ffffffffffffffffffffffffffffffffffffffff16021790555073d2d6158683aee4cc838067727209a0aaf4359de39050600180548060010182816200007f91906200012d565b9160005260206000209001600083909190916101000a81548173ffffffffffffffffffffffffffffffffffffffff021916908373ffffffffffffffffffffffffffffffffffffffff160217905550506001600260008373ffffffffffffffffffffffffffffffffffffffff1673ffffffffffffffffffffffffffffffffffffffff16815260200190815260200160002060006101000a81548160ff0219169083151502179055505062000184565b81548183558181151162000157578183600052602060002091820191016200015691906200015c565b5b505050565b6200018191905b808211156200017d57600081600090555060010162000163565b5090565b90565b6120e680620001946000396000f3006060604052600436106100ba576000357c0100000000000000000000000000000000000000000000000000000000900463ffffffff1680632b44e5be146100bf578063338b5dea1461013f578063508493bc146101815780635f4402c5146101ed5780636d69fcaf1461026d57806376319190146102a65780638da5cb5b146102df578063b425bd4314610334578063c0ee0b8a14610395578063e70619501461041a578063ea4e6ded1461046b578063f2fde38b146104d5575b600080fd5b34156100ca57600080fd5b61013d600480803573ffffffffffffffffffffffffffffffffffffffff1690602001909190803573ffffffffffffffffffffffffffffffffffffffff1690602001909190803573ffffffffffffffffffffffffffffffffffffffff1690602001909190803590602001909190505061050e565b005b341561014a57600080fd5b61017f600480803573ffffffffffffffffffffffffffffffffffffffff16906020019091908035906020019091905050610990565b005b341561018c57600080fd5b6101d7600480803573ffffffffffffffffffffffffffffffffffffffff1690602001909190803573ffffffffffffffffffffffffffffffffffffffff16906020019091905050610d56565b6040518082815260200191505060405180910390f35b34156101f857600080fd5b61026b600480803573ffffffffffffffffffffffffffffffffffffffff1690602001909190803573ffffffffffffffffffffffffffffffffffffffff1690602001909190803590602001908201803590602001919091929080359060200190820180359060200191909192905050610d7b565b005b341561027857600080fd5b6102a4600480803573ffffffffffffffffffffffffffffffffffffffff169060200190919050506112f5565b005b34156102b157600080fd5b6102dd600480803573ffffffffffffffffffffffffffffffffffffffff16906020019091905050611467565b005b34156102ea57600080fd5b6102f26116c0565b604051808273ffffffffffffffffffffffffffffffffffffffff1673ffffffffffffffffffffffffffffffffffffffff16815260200191505060405180910390f35b341561033f57600080fd5b610393600480803573ffffffffffffffffffffffffffffffffffffffff16906020019091908035906020019082018035906020019190919290803590602001908201803590602001919091929050506116e5565b005b34156103a057600080fd5b610418600480803573ffffffffffffffffffffffffffffffffffffffff1690602001909190803590602001909190803590602001908201803590602001908080601f01602080910402602001604051908101604052809392919081815260200183838082843782019150505050505091905050611b5d565b005b341561042557600080fd5b610451600480803573ffffffffffffffffffffffffffffffffffffffff16906020019091905050611de9565b604051808215151515815260200191505060405180910390f35b341561047657600080fd5b61047e611e09565b6040518080602001828103825283818151815260200191508051906020019060200280838360005b838110156104c15780820151818401526020810190506104a6565b505050509050019250505060405180910390f35b34156104e057600080fd5b61050c600480803573ffffffffffffffffffffffffffffffffffffffff16906020019091905050611e9d565b005b6000809054906101000a900473ffffffffffffffffffffffffffffffffffffffff1673ffffffffffffffffffffffffffffffffffffffff163373ffffffffffffffffffffffffffffffffffffffff1614151561056957600080fd5b600073ffffffffffffffffffffffffffffffffffffffff168473ffffffffffffffffffffffffffffffffffffffff16141515156105a557600080fd5b600073ffffffffffffffffffffffffffffffffffffffff168273ffffffffffffffffffffffffffffffffffffffff16141515156105e157600080fd5b600260008573ffffffffffffffffffffffffffffffffffffffff1673ffffffffffffffffffffffffffffffffffffffff16815260200190815260200160002060009054906101000a900460ff16151561063957600080fd5b80600360008673ffffffffffffffffffffffffffffffffffffffff1673ffffffffffffffffffffffffffffffffffffffff16815260200190815260200160002060008573ffffffffffffffffffffffffffffffffffffffff1673ffffffffffffffffffffffffffffffffffffffff16815260200190815260200160002054101515156106c457600080fd5b61074a600360008673ffffffffffffffffffffffffffffffffffffffff1673ffffffffffffffffffffffffffffffffffffffff16815260200190815260200160002060008573ffffffffffffffffffffffffffffffffffffffff1673ffffffffffffffffffffffffffffffffffffffff1681526020019081526020016000205482611ff2565b600360008673ffffffffffffffffffffffffffffffffffffffff1673ffffffffffffffffffffffffffffffffffffffff16815260200190815260200160002060008573ffffffffffffffffffffffffffffffffffffffff1673ffffffffffffffffffffffffffffffffffffffff168152602001908152602001600020819055508373ffffffffffffffffffffffffffffffffffffffff1663a9059cbb83836000604051602001526040518363ffffffff167c0100000000000000000000000000000000000000000000000000000000028152600401808373ffffffffffffffffffffffffffffffffffffffff1673ffffffffffffffffffffffffffffffffffffffff16815260200182815260200192505050602060405180830381600087803b151561087557600080fd5b6102c65a03f1151561088657600080fd5b50505060405180519050151561089b57600080fd5b7f77cbc1263ce3589cffa12699a0fcc8c3ee72c04a3a35055a02a43d376928007f8484848442604051808673ffffffffffffffffffffffffffffffffffffffff1673ffffffffffffffffffffffffffffffffffffffff1681526020018573ffffffffffffffffffffffffffffffffffffffff1673ffffffffffffffffffffffffffffffffffffffff1681526020018473ffffffffffffffffffffffffffffffffffffffff1673ffffffffffffffffffffffffffffffffffffffff1681526020018381526020018267ffffffffffffffff1667ffffffffffffffff1681526020019550505050505060405180910390a150505050565b600073ffffffffffffffffffffffffffffffffffffffff168273ffffffffffffffffffffffffffffffffffffffff16141515156109cc57600080fd5b600260008373ffffffffffffffffffffffffffffffffffffffff1673ffffffffffffffffffffffffffffffffffffffff16815260200190815260200160002060009054906101000a900460ff161515610a2457600080fd5b8173ffffffffffffffffffffffffffffffffffffffff166323b872dd3330846000604051602001526040518463ffffffff167c0100000000000000000000000000000000000000000000000000000000028152600401808473ffffffffffffffffffffffffffffffffffffffff1673ffffffffffffffffffffffffffffffffffffffff1681526020018373ffffffffffffffffffffffffffffffffffffffff1673ffffffffffffffffffffffffffffffffffffffff1681526020018281526020019350505050602060405180830381600087803b1515610b0357600080fd5b6102c65a03f11515610b1457600080fd5b505050604051805190501515610b2957600080fd5b610baf600360008473ffffffffffffffffffffffffffffffffffffffff1673ffffffffffffffffffffffffffffffffffffffff16815260200190815260200160002060003373ffffffffffffffffffffffffffffffffffffffff1673ffffffffffffffffffffffffffffffffffffffff168152602001908152602001600020548261200b565b600360008473ffffffffffffffffffffffffffffffffffffffff1673ffffffffffffffffffffffffffffffffffffffff16815260200190815260200160002060003373ffffffffffffffffffffffffffffffffffffffff1673ffffffffffffffffffffffffffffffffffffffff168152602001908152602001600020819055507fdcbc1c05240f31ff3ad067ef1ee35ce4997762752e3a095284754544f4c709d7823383600360008773ffffffffffffffffffffffffffffffffffffffff1673ffffffffffffffffffffffffffffffffffffffff16815260200190815260200160002060003373ffffffffffffffffffffffffffffffffffffffff1673ffffffffffffffffffffffffffffffffffffffff16815260200190815260200160002054604051808573ffffffffffffffffffffffffffffffffffffffff1673ffffffffffffffffffffffffffffffffffffffff1681526020018473ffffffffffffffffffffffffffffffffffffffff1673ffffffffffffffffffffffffffffffffffffffff16815260200183815260200182815260200194505050505060405180910390a15050565b6003602052816000526040600020602052806000526040600020600091509150505481565b60008060008060009054906101000a900473ffffffffffffffffffffffffffffffffffffffff1673ffffffffffffffffffffffffffffffffffffffff163373ffffffffffffffffffffffffffffffffffffffff16141515610ddb57600080fd5b600073ffffffffffffffffffffffffffffffffffffffff168973ffffffffffffffffffffffffffffffffffffffff1614151515610e1757600080fd5b600073ffffffffffffffffffffffffffffffffffffffff168873ffffffffffffffffffffffffffffffffffffffff1614151515610e5357600080fd5b8484905087879050141515610e6757600080fd5b600260008a73ffffffffffffffffffffffffffffffffffffffff1673ffffffffffffffffffffffffffffffffffffffff16815260200190815260200160002060009054906101000a900460ff161515610ebf57600080fd5b60009250600091505b84849050821015610f0057610ef1838686858181101515610ee557fe5b9050602002013561200b565b92508180600101925050610ec8565b82600360008b73ffffffffffffffffffffffffffffffffffffffff1673ffffffffffffffffffffffffffffffffffffffff16815260200190815260200160002060008a73ffffffffffffffffffffffffffffffffffffffff1673ffffffffffffffffffffffffffffffffffffffff1681526020019081526020016000205410151515610f8b57600080fd5b611011600360008b73ffffffffffffffffffffffffffffffffffffffff1673ffffffffffffffffffffffffffffffffffffffff16815260200190815260200160002060008a73ffffffffffffffffffffffffffffffffffffffff1673ffffffffffffffffffffffffffffffffffffffff1681526020019081526020016000205484611ff2565b600360008b73ffffffffffffffffffffffffffffffffffffffff1673ffffffffffffffffffffffffffffffffffffffff16815260200190815260200160002060008a73ffffffffffffffffffffffffffffffffffffffff1673ffffffffffffffffffffffffffffffffffffffff16815260200190815260200160002081905550600090505b868690508110156112ea578873ffffffffffffffffffffffffffffffffffffffff1663a9059cbb88888481811015156110cb57fe5b9050602002013573ffffffffffffffffffffffffffffffffffffffff1687878581811015156110f657fe5b905060200201356000604051602001526040518363ffffffff167c0100000000000000000000000000000000000000000000000000000000028152600401808373ffffffffffffffffffffffffffffffffffffffff1673ffffffffffffffffffffffffffffffffffffffff16815260200182815260200192505050602060405180830381600087803b151561118a57600080fd5b6102c65a03f1151561119b57600080fd5b5050506040518051905015156111b057600080fd5b7f77cbc1263ce3589cffa12699a0fcc8c3ee72c04a3a35055a02a43d376928007f898989898581811015156111e157fe5b9050602002013573ffffffffffffffffffffffffffffffffffffffff16888886818110151561120c57fe5b9050602002013542604051808673ffffffffffffffffffffffffffffffffffffffff1673ffffffffffffffffffffffffffffffffffffffff1681526020018573ffffffffffffffffffffffffffffffffffffffff1673ffffffffffffffffffffffffffffffffffffffff1681526020018473ffffffffffffffffffffffffffffffffffffffff1673ffffffffffffffffffffffffffffffffffffffff1681526020018381526020018267ffffffffffffffff1667ffffffffffffffff1681526020019550505050505060405180910390a18080600101915050611096565b505050505050505050565b6000809054906101000a900473ffffffffffffffffffffffffffffffffffffffff1673ffffffffffffffffffffffffffffffffffffffff163373ffffffffffffffffffffffffffffffffffffffff1614151561135057600080fd5b600260008273ffffffffffffffffffffffffffffffffffffffff1673ffffffffffffffffffffffffffffffffffffffff16815260200190815260200160002060009054906101000a900460ff161515156113a957600080fd5b600180548060010182816113bd9190612029565b9160005260206000209001600083909190916101000a81548173ffffffffffffffffffffffffffffffffffffffff021916908373ffffffffffffffffffffffffffffffffffffffff160217905550506001600260008373ffffffffffffffffffffffffffffffffffffffff1673ffffffffffffffffffffffffffffffffffffffff16815260200190815260200160002060006101000a81548160ff02191690831515021790555050565b6000806000809054906101000a900473ffffffffffffffffffffffffffffffffffffffff1673ffffffffffffffffffffffffffffffffffffffff163373ffffffffffffffffffffffffffffffffffffffff161415156114c557600080fd5b600260008473ffffffffffffffffffffffffffffffffffffffff1673ffffffffffffffffffffffffffffffffffffffff16815260200190815260200160002060009054906101000a900460ff16151561151d57600080fd5b600091505b6001805490508210156116ba578273ffffffffffffffffffffffffffffffffffffffff1660018381548110151561155557fe5b906000526020600020900160009054906101000a900473ffffffffffffffffffffffffffffffffffffffff1673ffffffffffffffffffffffffffffffffffffffff1614156116ad57600180805490500390506001818154811015156115b657fe5b906000526020600020900160009054906101000a900473ffffffffffffffffffffffffffffffffffffffff166001838154811015156115f157fe5b906000526020600020900160006101000a81548173ffffffffffffffffffffffffffffffffffffffff021916908373ffffffffffffffffffffffffffffffffffffffff160217905550600180548091906001900361164f9190612055565b506000600260008573ffffffffffffffffffffffffffffffffffffffff1673ffffffffffffffffffffffffffffffffffffffff16815260200190815260200160002060006101000a81548160ff0219169083151502179055506116bb565b8180600101925050611522565b5b505050565b6000809054906101000a900473ffffffffffffffffffffffffffffffffffffffff1681565b60008060008060009054906101000a900473ffffffffffffffffffffffffffffffffffffffff1673ffffffffffffffffffffffffffffffffffffffff163373ffffffffffffffffffffffffffffffffffffffff1614151561174557600080fd5b600073ffffffffffffffffffffffffffffffffffffffff168873ffffffffffffffffffffffffffffffffffffffff161415151561178157600080fd5b848490508787905014151561179557600080fd5b600260008973ffffffffffffffffffffffffffffffffffffffff1673ffffffffffffffffffffffffffffffffffffffff16815260200190815260200160002060009054906101000a900460ff1615156117ed57600080fd5b60009250600091505b8484905082101561182e5761181f83868685818110151561181357fe5b9050602002013561200b565b925081806001019250506117f6565b828873ffffffffffffffffffffffffffffffffffffffff166370a08231306000604051602001526040518263ffffffff167c0100000000000000000000000000000000000000000000000000000000028152600401808273ffffffffffffffffffffffffffffffffffffffff1673ffffffffffffffffffffffffffffffffffffffff168152602001915050602060405180830381600087803b15156118d257600080fd5b6102c65a03f115156118e357600080fd5b50505060405180519050101515156118fa57600080fd5b600090505b86869050811015611b53578773ffffffffffffffffffffffffffffffffffffffff1663a9059cbb888884818110151561193457fe5b9050602002013573ffffffffffffffffffffffffffffffffffffffff16878785818110151561195f57fe5b905060200201356000604051602001526040518363ffffffff167c0100000000000000000000000000000000000000000000000000000000028152600401808373ffffffffffffffffffffffffffffffffffffffff1673ffffffffffffffffffffffffffffffffffffffff16815260200182815260200192505050602060405180830381600087803b15156119f357600080fd5b6102c65a03f11515611a0457600080fd5b505050604051805190501515611a1957600080fd5b7f77cbc1263ce3589cffa12699a0fcc8c3ee72c04a3a35055a02a43d376928007f88308989858181101515611a4a57fe5b9050602002013573ffffffffffffffffffffffffffffffffffffffff168888868181101515611a7557fe5b9050602002013542604051808673ffffffffffffffffffffffffffffffffffffffff1673ffffffffffffffffffffffffffffffffffffffff1681526020018573ffffffffffffffffffffffffffffffffffffffff1673ffffffffffffffffffffffffffffffffffffffff1681526020018473ffffffffffffffffffffffffffffffffffffffff1673ffffffffffffffffffffffffffffffffffffffff1681526020018381526020018267ffffffffffffffff1667ffffffffffffffff1681526020019550505050505060405180910390a180806001019150506118ff565b5050505050505050565b6000339050600260008273ffffffffffffffffffffffffffffffffffffffff1673ffffffffffffffffffffffffffffffffffffffff16815260200190815260200160002060009054906101000a900460ff161515611bba57600080fd5b611c40600360008373ffffffffffffffffffffffffffffffffffffffff1673ffffffffffffffffffffffffffffffffffffffff16815260200190815260200160002060008673ffffffffffffffffffffffffffffffffffffffff1673ffffffffffffffffffffffffffffffffffffffff168152602001908152602001600020548461200b565b600360008373ffffffffffffffffffffffffffffffffffffffff1673ffffffffffffffffffffffffffffffffffffffff16815260200190815260200160002060008673ffffffffffffffffffffffffffffffffffffffff1673ffffffffffffffffffffffffffffffffffffffff168152602001908152602001600020819055507fdcbc1c05240f31ff3ad067ef1ee35ce4997762752e3a095284754544f4c709d7818585600360008673ffffffffffffffffffffffffffffffffffffffff1673ffffffffffffffffffffffffffffffffffffffff16815260200190815260200160002060008973ffffffffffffffffffffffffffffffffffffffff1673ffffffffffffffffffffffffffffffffffffffff16815260200190815260200160002054604051808573ffffffffffffffffffffffffffffffffffffffff1673ffffffffffffffffffffffffffffffffffffffff1681526020018473ffffffffffffffffffffffffffffffffffffffff1673ffffffffffffffffffffffffffffffffffffffff16815260200183815260200182815260200194505050505060405180910390a150505050565b60026020528060005260406000206000915054906101000a900460ff1681565b611e11612081565b6001805480602002602001604051908101604052809291908181526020018280548015611e9357602002820191906000526020600020905b8160009054906101000a900473ffffffffffffffffffffffffffffffffffffffff1673ffffffffffffffffffffffffffffffffffffffff1681526020019060010190808311611e49575b5050505050905090565b6000809054906101000a900473ffffffffffffffffffffffffffffffffffffffff1673ffffffffffffffffffffffffffffffffffffffff163373ffffffffffffffffffffffffffffffffffffffff16141515611ef857600080fd5b600073ffffffffffffffffffffffffffffffffffffffff168173ffffffffffffffffffffffffffffffffffffffff1614151515611f3457600080fd5b8073ffffffffffffffffffffffffffffffffffffffff166000809054906101000a900473ffffffffffffffffffffffffffffffffffffffff1673ffffffffffffffffffffffffffffffffffffffff167f8be0079c531659141344cd1fd0a4f28419497f9722a3daafe3b4186f6b6457e060405160405180910390a3806000806101000a81548173ffffffffffffffffffffffffffffffffffffffff021916908373ffffffffffffffffffffffffffffffffffffffff16021790555050565b600082821115151561200057fe5b818303905092915050565b600080828401905083811015151561201f57fe5b8091505092915050565b8154818355818115116120505781836000526020600020918201910161204f9190612095565b5b505050565b81548183558181151161207c5781836000526020600020918201910161207b9190612095565b5b505050565b602060405190810160405280600081525090565b6120b791905b808211156120b357600081600090555060010161209b565b5090565b905600a165627a7a723058203b6c8276013d7ad54a4bbed588f0eef8058d22db43de32f3899d68fe14d460f60029",
  "source": "pragma solidity ^0.4.18;\n\nimport 'zeppelin-solidity/contracts/math/SafeMath.sol';\nimport 'zeppelin-solidity/contracts/ownership/Ownable.sol';\nimport 'zeppelin-solidity/contracts/token/ERC20.sol';\nimport './interfaces/ERC223_receiving_contract.sol';\n\n\ncontract Bounty0xEscrow is Ownable, ERC223ReceivingContract {\n\n    using SafeMath for uint256;\n\n    address[] supportedTokens;\n\n    mapping (address => bool) public tokenIsSupported;\n    mapping (address => mapping (address => uint)) public tokens; //mapping of token addresses to mapping of account balances (token=0 means Ether)\n\n    event Deposit(address token, address user, uint amount, uint balance);\n    event Distribution(address token, address host, address hunter, uint256 amount, uint64 timestamp);\n\n\n    function Bounty0xEscrow() public {\n        address Bounty0xToken = 0xd2d6158683aeE4Cc838067727209a0aAF4359de3;\n        supportedTokens.push(Bounty0xToken);\n        tokenIsSupported[Bounty0xToken] = true;\n    }\n\n\n    function addSupportedToken(address _token) public onlyOwner {\n        require(!tokenIsSupported[_token]);\n\n        supportedTokens.push(_token);\n        tokenIsSupported[_token] = true;\n    }\n\n    function removeSupportedToken(address _token) public onlyOwner {\n        require(tokenIsSupported[_token]);\n\n        for (uint i = 0; i < supportedTokens.length; i++) {\n            if (supportedTokens[i] == _token) {\n                var indexOfLastToken = supportedTokens.length - 1;\n                supportedTokens[i] = supportedTokens[indexOfLastToken];\n                supportedTokens.length--;\n                tokenIsSupported[_token] = false;\n                return;\n            }\n        }\n    }\n\n    function getListOfSupportedTokens() view public returns(address[]) {\n        return supportedTokens;\n    }\n\n\n    function tokenFallback(address _from, uint _value, bytes _data) public {\n        var _token = msg.sender;\n        require(tokenIsSupported[_token]);\n\n        tokens[_token][_from] = SafeMath.add(tokens[_token][_from], _value);\n        Deposit(_token, _from, _value, tokens[_token][_from]);\n    }\n\n\n    function depositToken(address _token, uint _amount) public {\n        //remember to call Token(address).approve(this, amount) or this contract will not be able to do the transfer on your behalf.\n        require(_token != address(0));\n        require(tokenIsSupported[_token]);\n\n        require(ERC20(_token).transferFrom(msg.sender, this, _amount));\n        tokens[_token][msg.sender] = SafeMath.add(tokens[_token][msg.sender], _amount);\n\n        Deposit(_token, msg.sender, _amount, tokens[_token][msg.sender]);\n    }\n\n\n    function distributeTokenToAddress(address _token, address _host, address _hunter, uint256 _amount) external onlyOwner {\n        require(_token != address(0));\n        require(_hunter != address(0));\n        require(tokenIsSupported[_token]);\n        require(tokens[_token][_host] >= _amount);\n\n        tokens[_token][_host] = SafeMath.sub(tokens[_token][_host], _amount);\n        require(ERC20(_token).transfer(_hunter, _amount));\n\n        Distribution(_token, _host, _hunter, _amount, uint64(now));\n    }\n\n    function distributeTokenToAddressesAndAmounts(address _token, address _host, address[] _hunters, uint256[] _amounts) external onlyOwner {\n        require(_token != address(0));\n        require(_host != address(0));\n        require(_hunters.length == _amounts.length);\n        require(tokenIsSupported[_token]);\n\n        uint256 totalAmount = 0;\n        for (uint j = 0; j < _amounts.length; j++) {\n            totalAmount = SafeMath.add(totalAmount, _amounts[j]);\n        }\n        require(tokens[_token][_host] >= totalAmount);\n        tokens[_token][_host] = SafeMath.sub(tokens[_token][_host], totalAmount);\n\n        for (uint i = 0; i < _hunters.length; i++) {\n            require(ERC20(_token).transfer(_hunters[i], _amounts[i]));\n\n            Distribution(_token, _host, _hunters[i], _amounts[i], uint64(now));\n        }\n    }\n\n    function distributeTokenToAddressesAndAmountsWithoutHost(address _token, address[] _hunters, uint256[] _amounts) external onlyOwner {\n        require(_token != address(0));\n        require(_hunters.length == _amounts.length);\n        require(tokenIsSupported[_token]);\n        \n        uint256 totalAmount = 0;\n        for (uint j = 0; j < _amounts.length; j++) {\n            totalAmount = SafeMath.add(totalAmount, _amounts[j]);\n        }\n        require(ERC20(_token).balanceOf(this) >= totalAmount);\n       \n        for (uint i = 0; i < _hunters.length; i++) {\n            require(ERC20(_token).transfer(_hunters[i], _amounts[i]));\n \n            Distribution(_token, this, _hunters[i], _amounts[i], uint64(now));\n        }\n    }\n\n}\n",
  "sourcePath": "/Users/Alexander/Desktop/Bounty0xEscrowContract/contracts/Bounty0xEscrow.sol",
  "compiler": {
    "name": "solc",
    "version": "0.4.18+commit.9cf6e910.Emscripten.clang"
  },
  "schemaVersion": "1.0.1",
  "updatedAt": "2018-03-03T10:04:24.311Z"
}