{
  "contractName": "ERC223Token",
  "abi": [
    {
      "constant": true,
      "inputs": [],
      "name": "totalSupply",
      "outputs": [
        {
          "name": "",
          "type": "uint256"
        }
      ],
      "payable": false,
      "stateMutability": "view",
      "type": "function"
    },
    {
      "anonymous": false,
      "inputs": [
        {
          "indexed": true,
          "name": "from",
          "type": "address"
        },
        {
          "indexed": true,
          "name": "to",
          "type": "address"
        },
        {
          "indexed": false,
          "name": "value",
          "type": "uint256"
        },
        {
          "indexed": false,
          "name": "data",
          "type": "bytes"
        }
      ],
      "name": "Transfer",
      "type": "event"
    },
    {
      "constant": false,
      "inputs": [
        {
          "name": "_to",
          "type": "address"
        },
        {
          "name": "_value",
          "type": "uint256"
        }
      ],
      "name": "transfer",
      "outputs": [],
      "payable": false,
      "stateMutability": "nonpayable",
      "type": "function"
    },
    {
      "constant": false,
      "inputs": [
        {
          "name": "_to",
          "type": "address"
        },
        {
          "name": "_value",
          "type": "uint256"
        },
        {
          "name": "_data",
          "type": "bytes"
        }
      ],
      "name": "transfer",
      "outputs": [],
      "payable": false,
      "stateMutability": "nonpayable",
      "type": "function"
    },
    {
      "constant": true,
      "inputs": [
        {
          "name": "_owner",
          "type": "address"
        }
      ],
      "name": "balanceOf",
      "outputs": [
        {
          "name": "balance",
          "type": "uint256"
        }
      ],
      "payable": false,
      "stateMutability": "view",
      "type": "function"
    }
  ],
  "bytecode": "0x608060405234801561001057600080fd5b506108fa806100206000396000f300608060405260043610610062576000357c0100000000000000000000000000000000000000000000000000000000900463ffffffff16806318160ddd1461006757806370a0823114610092578063a9059cbb146100e9578063be45fd6214610136575b600080fd5b34801561007357600080fd5b5061007c6101c9565b6040518082815260200191505060405180910390f35b34801561009e57600080fd5b506100d3600480360381019080803573ffffffffffffffffffffffffffffffffffffffff1690602001909291905050506101cf565b6040518082815260200191505060405180910390f35b3480156100f557600080fd5b50610134600480360381019080803573ffffffffffffffffffffffffffffffffffffffff16906020019092919080359060200190929190505050610218565b005b34801561014257600080fd5b506101c7600480360381019080803573ffffffffffffffffffffffffffffffffffffffff16906020019092919080359060200190929190803590602001908201803590602001908080601f016020809104026020016040519081016040528093929190818152602001838380828437820191505050505050919291929050505061055a565b005b60005481565b6000600160008373ffffffffffffffffffffffffffffffffffffffff1673ffffffffffffffffffffffffffffffffffffffff168152602001908152602001600020549050919050565b600060606000843b925061027484600160003373ffffffffffffffffffffffffffffffffffffffff1673ffffffffffffffffffffffffffffffffffffffff1681526020019081526020016000205461089990919063ffffffff16565b600160003373ffffffffffffffffffffffffffffffffffffffff1673ffffffffffffffffffffffffffffffffffffffff1681526020019081526020016000208190555061030984600160008873ffffffffffffffffffffffffffffffffffffffff1673ffffffffffffffffffffffffffffffffffffffff168152602001908152602001600020546108b290919063ffffffff16565b600160008773ffffffffffffffffffffffffffffffffffffffff1673ffffffffffffffffffffffffffffffffffffffff168152602001908152602001600020819055506000831115610481578490508073ffffffffffffffffffffffffffffffffffffffff1663c0ee0b8a3386856040518463ffffffff167c0100000000000000000000000000000000000000000000000000000000028152600401808473ffffffffffffffffffffffffffffffffffffffff1673ffffffffffffffffffffffffffffffffffffffff16815260200183815260200180602001828103825283818151815260200191508051906020019080838360005b8381101561041a5780820151818401526020810190506103ff565b50505050905090810190601f1680156104475780820380516001836020036101000a031916815260200191505b50945050505050600060405180830381600087803b15801561046857600080fd5b505af115801561047c573d6000803e3d6000fd5b505050505b8473ffffffffffffffffffffffffffffffffffffffff163373ffffffffffffffffffffffffffffffffffffffff167fe19260aff97b920c7df27010903aeb9c8d2be5d310a2c67824cf3f15396e4c1686856040518083815260200180602001828103825283818151815260200191508051906020019080838360005b838110156105185780820151818401526020810190506104fd565b50505050905090810190601f1680156105455780820380516001836020036101000a031916815260200191505b50935050505060405180910390a35050505050565b600080843b91506105b384600160003373ffffffffffffffffffffffffffffffffffffffff1673ffffffffffffffffffffffffffffffffffffffff1681526020019081526020016000205461089990919063ffffffff16565b600160003373ffffffffffffffffffffffffffffffffffffffff1673ffffffffffffffffffffffffffffffffffffffff1681526020019081526020016000208190555061064884600160008873ffffffffffffffffffffffffffffffffffffffff1673ffffffffffffffffffffffffffffffffffffffff168152602001908152602001600020546108b290919063ffffffff16565b600160008773ffffffffffffffffffffffffffffffffffffffff1673ffffffffffffffffffffffffffffffffffffffff1681526020019081526020016000208190555060008211156107c0578490508073ffffffffffffffffffffffffffffffffffffffff1663c0ee0b8a3386866040518463ffffffff167c0100000000000000000000000000000000000000000000000000000000028152600401808473ffffffffffffffffffffffffffffffffffffffff1673ffffffffffffffffffffffffffffffffffffffff16815260200183815260200180602001828103825283818151815260200191508051906020019080838360005b8381101561075957808201518184015260208101905061073e565b50505050905090810190601f1680156107865780820380516001836020036101000a031916815260200191505b50945050505050600060405180830381600087803b1580156107a757600080fd5b505af11580156107bb573d6000803e3d6000fd5b505050505b8473ffffffffffffffffffffffffffffffffffffffff163373ffffffffffffffffffffffffffffffffffffffff167fe19260aff97b920c7df27010903aeb9c8d2be5d310a2c67824cf3f15396e4c1686866040518083815260200180602001828103825283818151815260200191508051906020019080838360005b8381101561085757808201518184015260208101905061083c565b50505050905090810190601f1680156108845780820380516001836020036101000a031916815260200191505b50935050505060405180910390a35050505050565b60008282111515156108a757fe5b818303905092915050565b600081830190508281101515156108c557fe5b809050929150505600a165627a7a723058209de0d41394dfcc312e74eec0899407859d87622a22dbc4ac57651fc0d512a3b40029",
  "source": "pragma solidity ^0.4.11;\n\nimport './ERC223_interface.sol';\nimport './ERC223_receiving_contract.sol';\nimport 'openzeppelin-solidity/contracts/math/SafeMath.sol';\n\n/**\n * @title Reference implementation of the ERC223 standard token.\n */\ncontract ERC223Token is ERC223Interface {\n    using SafeMath for uint;\n\n    mapping(address => uint) balances; // List of user balances.\n\n    /**\n     * @dev Transfer the specified amount of tokens to the specified address.\n     *      Invokes the `tokenFallback` function if the recipient is a contract.\n     *      The token transfer fails if the recipient is a contract\n     *      but does not implement the `tokenFallback` function\n     *      or the fallback function to receive funds.\n     *\n     * @param _to    Receiver address.\n     * @param _value Amount of tokens that will be transferred.\n     * @param _data  Transaction metadata.\n     */\n    function transfer(address _to, uint _value, bytes _data) {\n        // Standard function transfer similar to ERC20 transfer with no _data .\n        // Added due to backwards compatibility reasons .\n        uint codeLength;\n\n        assembly {\n            // Retrieve the size of the code on target address, this needs assembly .\n            codeLength := extcodesize(_to)\n        }\n\n        balances[msg.sender] = balances[msg.sender].sub(_value);\n        balances[_to] = balances[_to].add(_value);\n        if(codeLength>0) {\n            ERC223ReceivingContract receiver = ERC223ReceivingContract(_to);\n            receiver.tokenFallback(msg.sender, _value, _data);\n        }\n        Transfer(msg.sender, _to, _value, _data);\n    }\n\n    /**\n     * @dev Transfer the specified amount of tokens to the specified address.\n     *      This function works the same with the previous one\n     *      but doesn't contain `_data` param.\n     *      Added due to backwards compatibility reasons.\n     *\n     * @param _to    Receiver address.\n     * @param _value Amount of tokens that will be transferred.\n     */\n    function transfer(address _to, uint _value) {\n        uint codeLength;\n        bytes memory empty;\n\n        assembly {\n            // Retrieve the size of the code on target address, this needs assembly .\n            codeLength := extcodesize(_to)\n        }\n\n        balances[msg.sender] = balances[msg.sender].sub(_value);\n        balances[_to] = balances[_to].add(_value);\n        if(codeLength>0) {\n            ERC223ReceivingContract receiver = ERC223ReceivingContract(_to);\n            receiver.tokenFallback(msg.sender, _value, empty);\n        }\n        Transfer(msg.sender, _to, _value, empty);\n    }\n\n\n    /**\n     * @dev Returns balance of the `_owner`.\n     *\n     * @param _owner   The address whose balance will be returned.\n     * @return balance Balance of the `_owner`.\n     */\n    function balanceOf(address _owner) constant returns (uint balance) {\n        return balances[_owner];\n    }\n}\n",
  "sourcePath": "/Users/Alexander/Desktop/Bounty0xEscrowContract/contracts/interfaces/ERC223_token.sol",
  "compiler": {
    "name": "solc",
    "version": "0.4.23+commit.124ca40d.Emscripten.clang"
  },
  "schemaVersion": "2.0.0",
  "updatedAt": "2018-05-02T12:21:33.214Z"
}